{
	"src/AddressExample.sol": {
		"AddressExample": {
			"abi": [
				{
					"inputs": [
						{
							"internalType": "address",
							"name": "_wallet",
							"type": "address"
						}
					],
					"stateMutability": "nonpayable",
					"type": "constructor"
				},
				{
					"inputs": [],
					"name": "getBalance",
					"outputs": [
						{
							"internalType": "uint256",
							"name": "",
							"type": "uint256"
						}
					],
					"stateMutability": "view",
					"type": "function"
				},
				{
					"inputs": [],
					"name": "owner",
					"outputs": [
						{
							"internalType": "address",
							"name": "",
							"type": "address"
						}
					],
					"stateMutability": "view",
					"type": "function"
				},
				{
					"inputs": [
						{
							"internalType": "uint256",
							"name": "amount",
							"type": "uint256"
						}
					],
					"name": "transferToWallet",
					"outputs": [],
					"stateMutability": "nonpayable",
					"type": "function"
				},
				{
					"inputs": [
						{
							"internalType": "address",
							"name": "newWallet",
							"type": "address"
						}
					],
					"name": "updateWallet",
					"outputs": [],
					"stateMutability": "nonpayable",
					"type": "function"
				},
				{
					"inputs": [],
					"name": "wallet",
					"outputs": [
						{
							"internalType": "address payable",
							"name": "",
							"type": "address"
						}
					],
					"stateMutability": "view",
					"type": "function"
				},
				{
					"stateMutability": "payable",
					"type": "receive"
				}
			],
			"devdoc": {
				"kind": "dev",
				"methods": {},
				"version": 1
			},
			"evm": {
				"assembly": "    /* \"src/AddressExample.sol\":57:1045  contract AddressExample {... */\n  mstore(0x40, 0x80)\n    /* \"src/AddressExample.sol\":193:362  constructor(address _wallet) {... */\n  callvalue\n  dup1\n  iszero\n  tag_1\n  jumpi\n  0x00\n  dup1\n  revert\ntag_1:\n  pop\n  mload(0x40)\n  sub(codesize, bytecodeSize)\n  dup1\n  bytecodeSize\n  dup4\n  codecopy\n  dup2\n  dup2\n  add\n  0x40\n  mstore\n  dup2\n  add\n  swap1\n  tag_2\n  swap2\n  swap1\n  tag_3\n  jump\t// in\ntag_2:\n    /* \"src/AddressExample.sol\":240:250  msg.sender */\n  caller\n    /* \"src/AddressExample.sol\":232:237  owner */\n  0x00\n  dup1\n    /* \"src/AddressExample.sol\":232:250  owner = msg.sender */\n  0x0100\n  exp\n  dup2\n  sload\n  dup2\n  0xffffffffffffffffffffffffffffffffffffffff\n  mul\n  not\n  and\n  swap1\n  dup4\n  0xffffffffffffffffffffffffffffffffffffffff\n  and\n  mul\n  or\n  swap1\n  sstore\n  pop\n    /* \"src/AddressExample.sol\":306:313  _wallet */\n  dup1\n    /* \"src/AddressExample.sol\":289:295  wallet */\n  0x01\n  0x00\n    /* \"src/AddressExample.sol\":289:314  wallet = payable(_wallet) */\n  0x0100\n  exp\n  dup2\n  sload\n  dup2\n  0xffffffffffffffffffffffffffffffffffffffff\n  mul\n  not\n  and\n  swap1\n  dup4\n  0xffffffffffffffffffffffffffffffffffffffff\n  and\n  mul\n  or\n  swap1\n  sstore\n  pop\n    /* \"src/AddressExample.sol\":193:362  constructor(address _wallet) {... */\n  pop\n    /* \"src/AddressExample.sol\":57:1045  contract AddressExample {... */\n  jump(tag_6)\n    /* \"#utility.yul\":88:205   */\ntag_8:\n    /* \"#utility.yul\":197:198   */\n  0x00\n    /* \"#utility.yul\":194:195   */\n  dup1\n    /* \"#utility.yul\":187:199   */\n  revert\n    /* \"#utility.yul\":334:460   */\ntag_10:\n    /* \"#utility.yul\":371:378   */\n  0x00\n    /* \"#utility.yul\":411:453   */\n  0xffffffffffffffffffffffffffffffffffffffff\n    /* \"#utility.yul\":404:409   */\n  dup3\n    /* \"#utility.yul\":400:454   */\n  and\n    /* \"#utility.yul\":389:454   */\n  swap1\n  pop\n    /* \"#utility.yul\":334:460   */\n  swap2\n  swap1\n  pop\n  jump\t// out\n    /* \"#utility.yul\":466:562   */\ntag_11:\n    /* \"#utility.yul\":503:510   */\n  0x00\n    /* \"#utility.yul\":532:556   */\n  tag_20\n    /* \"#utility.yul\":550:555   */\n  dup3\n    /* \"#utility.yul\":532:556   */\n  tag_10\n  jump\t// in\ntag_20:\n    /* \"#utility.yul\":521:556   */\n  swap1\n  pop\n    /* \"#utility.yul\":466:562   */\n  swap2\n  swap1\n  pop\n  jump\t// out\n    /* \"#utility.yul\":568:690   */\ntag_12:\n    /* \"#utility.yul\":641:665   */\n  tag_22\n    /* \"#utility.yul\":659:664   */\n  dup2\n    /* \"#utility.yul\":641:665   */\n  tag_11\n  jump\t// in\ntag_22:\n    /* \"#utility.yul\":634:639   */\n  dup2\n    /* \"#utility.yul\":631:666   */\n  eq\n    /* \"#utility.yul\":621:684   */\n  tag_23\n  jumpi\n    /* \"#utility.yul\":680:681   */\n  0x00\n    /* \"#utility.yul\":677:678   */\n  dup1\n    /* \"#utility.yul\":670:682   */\n  revert\n    /* \"#utility.yul\":621:684   */\ntag_23:\n    /* \"#utility.yul\":568:690   */\n  pop\n  jump\t// out\n    /* \"#utility.yul\":696:839   */\ntag_13:\n    /* \"#utility.yul\":753:758   */\n  0x00\n    /* \"#utility.yul\":784:790   */\n  dup2\n    /* \"#utility.yul\":778:791   */\n  mload\n    /* \"#utility.yul\":769:791   */\n  swap1\n  pop\n    /* \"#utility.yul\":800:833   */\n  tag_25\n    /* \"#utility.yul\":827:832   */\n  dup2\n    /* \"#utility.yul\":800:833   */\n  tag_12\n  jump\t// in\ntag_25:\n    /* \"#utility.yul\":696:839   */\n  swap3\n  swap2\n  pop\n  pop\n  jump\t// out\n    /* \"#utility.yul\":845:1196   */\ntag_3:\n    /* \"#utility.yul\":915:921   */\n  0x00\n    /* \"#utility.yul\":964:966   */\n  0x20\n    /* \"#utility.yul\":952:961   */\n  dup3\n    /* \"#utility.yul\":943:950   */\n  dup5\n    /* \"#utility.yul\":939:962   */\n  sub\n    /* \"#utility.yul\":935:967   */\n  slt\n    /* \"#utility.yul\":932:1051   */\n  iszero\n  tag_27\n  jumpi\n    /* \"#utility.yul\":970:1049   */\n  tag_28\n  tag_8\n  jump\t// in\ntag_28:\n    /* \"#utility.yul\":932:1051   */\ntag_27:\n    /* \"#utility.yul\":1090:1091   */\n  0x00\n    /* \"#utility.yul\":1115:1179   */\n  tag_29\n    /* \"#utility.yul\":1171:1178   */\n  dup5\n    /* \"#utility.yul\":1162:1168   */\n  dup3\n    /* \"#utility.yul\":1151:1160   */\n  dup6\n    /* \"#utility.yul\":1147:1169   */\n  add\n    /* \"#utility.yul\":1115:1179   */\n  tag_13\n  jump\t// in\ntag_29:\n    /* \"#utility.yul\":1105:1179   */\n  swap2\n  pop\n    /* \"#utility.yul\":1061:1189   */\n  pop\n    /* \"#utility.yul\":845:1196   */\n  swap3\n  swap2\n  pop\n  pop\n  jump\t// out\n    /* \"src/AddressExample.sol\":57:1045  contract AddressExample {... */\ntag_6:\n  dataSize(sub_0)\n  dup1\n  dataOffset(sub_0)\n  0x00\n  codecopy\n  0x00\n  return\nstop\n\nsub_0: assembly {\n        /* \"src/AddressExample.sol\":57:1045  contract AddressExample {... */\n      mstore(0x40, 0x80)\n      jumpi(tag_1, lt(calldatasize, 0x04))\n      shr(0xe0, calldataload(0x00))\n      dup1\n      0x12065fe0\n      eq\n      tag_3\n      jumpi\n      dup1\n      0x521eb273\n      eq\n      tag_4\n      jumpi\n      dup1\n      0x848b86e3\n      eq\n      tag_5\n      jumpi\n      dup1\n      0x8da5cb5b\n      eq\n      tag_6\n      jumpi\n      dup1\n      0xa18ccc8a\n      eq\n      tag_7\n      jumpi\n      jump(tag_2)\n    tag_1:\n      jumpi(tag_2, calldatasize)\n      stop\n    tag_2:\n      0x00\n      dup1\n      revert\n        /* \"src/AddressExample.sol\":403:497  function getBalance() public view returns (uint) {... */\n    tag_3:\n      callvalue\n      dup1\n      iszero\n      tag_10\n      jumpi\n      0x00\n      dup1\n      revert\n    tag_10:\n      pop\n      tag_11\n      tag_12\n      jump\t// in\n    tag_11:\n      mload(0x40)\n      tag_13\n      swap2\n      swap1\n      tag_14\n      jump\t// in\n    tag_13:\n      mload(0x40)\n      dup1\n      swap2\n      sub\n      swap1\n      return\n        /* \"src/AddressExample.sol\":138:167  address payable public wallet */\n    tag_4:\n      callvalue\n      dup1\n      iszero\n      tag_15\n      jumpi\n      0x00\n      dup1\n      revert\n    tag_15:\n      pop\n      tag_16\n      tag_17\n      jump\t// in\n    tag_16:\n      mload(0x40)\n      tag_18\n      swap2\n      swap1\n      tag_19\n      jump\t// in\n    tag_18:\n      mload(0x40)\n      dup1\n      swap2\n      sub\n      swap1\n      return\n        /* \"src/AddressExample.sol\":888:1043  function updateWallet(address newWallet) public {... */\n    tag_5:\n      callvalue\n      dup1\n      iszero\n      tag_20\n      jumpi\n      0x00\n      dup1\n      revert\n    tag_20:\n      pop\n      tag_21\n      0x04\n      dup1\n      calldatasize\n      sub\n      dup2\n      add\n      swap1\n      tag_22\n      swap2\n      swap1\n      tag_23\n      jump\t// in\n    tag_22:\n      tag_24\n      jump\t// in\n    tag_21:\n      stop\n        /* \"src/AddressExample.sol\":87:107  address public owner */\n    tag_6:\n      callvalue\n      dup1\n      iszero\n      tag_25\n      jumpi\n      0x00\n      dup1\n      revert\n    tag_25:\n      pop\n      tag_26\n      tag_27\n      jump\t// in\n    tag_26:\n      mload(0x40)\n      tag_28\n      swap2\n      swap1\n      tag_29\n      jump\t// in\n    tag_28:\n      mload(0x40)\n      dup1\n      swap2\n      sub\n      swap1\n      return\n        /* \"src/AddressExample.sol\":620:856  function transferToWallet(uint amount) public {... */\n    tag_7:\n      callvalue\n      dup1\n      iszero\n      tag_30\n      jumpi\n      0x00\n      dup1\n      revert\n    tag_30:\n      pop\n      tag_31\n      0x04\n      dup1\n      calldatasize\n      sub\n      dup2\n      add\n      swap1\n      tag_32\n      swap2\n      swap1\n      tag_33\n      jump\t// in\n    tag_32:\n      tag_34\n      jump\t// in\n    tag_31:\n      stop\n        /* \"src/AddressExample.sol\":403:497  function getBalance() public view returns (uint) {... */\n    tag_12:\n        /* \"src/AddressExample.sol\":446:450  uint */\n      0x00\n        /* \"src/AddressExample.sol\":469:490  address(this).balance */\n      selfbalance\n        /* \"src/AddressExample.sol\":462:490  return address(this).balance */\n      swap1\n      pop\n        /* \"src/AddressExample.sol\":403:497  function getBalance() public view returns (uint) {... */\n      swap1\n      jump\t// out\n        /* \"src/AddressExample.sol\":138:167  address payable public wallet */\n    tag_17:\n      0x01\n      0x00\n      swap1\n      sload\n      swap1\n      0x0100\n      exp\n      swap1\n      div\n      0xffffffffffffffffffffffffffffffffffffffff\n      and\n      dup2\n      jump\t// out\n        /* \"src/AddressExample.sol\":888:1043  function updateWallet(address newWallet) public {... */\n    tag_24:\n        /* \"src/AddressExample.sol\":968:973  owner */\n      0x00\n      dup1\n      sload\n      swap1\n      0x0100\n      exp\n      swap1\n      div\n      0xffffffffffffffffffffffffffffffffffffffff\n      and\n        /* \"src/AddressExample.sol\":954:973  msg.sender == owner */\n      0xffffffffffffffffffffffffffffffffffffffff\n      and\n        /* \"src/AddressExample.sol\":954:964  msg.sender */\n      caller\n        /* \"src/AddressExample.sol\":954:973  msg.sender == owner */\n      0xffffffffffffffffffffffffffffffffffffffff\n      and\n      eq\n        /* \"src/AddressExample.sol\":946:999  require(msg.sender == owner, \"Only owner can update\") */\n      tag_37\n      jumpi\n      mload(0x40)\n      0x08c379a000000000000000000000000000000000000000000000000000000000\n      dup2\n      mstore\n      0x04\n      add\n      tag_38\n      swap1\n      tag_39\n      jump\t// in\n    tag_38:\n      mload(0x40)\n      dup1\n      swap2\n      sub\n      swap1\n      revert\n    tag_37:\n        /* \"src/AddressExample.sol\":1026:1035  newWallet */\n      dup1\n        /* \"src/AddressExample.sol\":1009:1015  wallet */\n      0x01\n      0x00\n        /* \"src/AddressExample.sol\":1009:1036  wallet = payable(newWallet) */\n      0x0100\n      exp\n      dup2\n      sload\n      dup2\n      0xffffffffffffffffffffffffffffffffffffffff\n      mul\n      not\n      and\n      swap1\n      dup4\n      0xffffffffffffffffffffffffffffffffffffffff\n      and\n      mul\n      or\n      swap1\n      sstore\n      pop\n        /* \"src/AddressExample.sol\":888:1043  function updateWallet(address newWallet) public {... */\n      pop\n      jump\t// out\n        /* \"src/AddressExample.sol\":87:107  address public owner */\n    tag_27:\n      0x00\n      dup1\n      sload\n      swap1\n      0x0100\n      exp\n      swap1\n      div\n      0xffffffffffffffffffffffffffffffffffffffff\n      and\n      dup2\n      jump\t// out\n        /* \"src/AddressExample.sol\":620:856  function transferToWallet(uint amount) public {... */\n    tag_34:\n        /* \"src/AddressExample.sol\":698:703  owner */\n      0x00\n      dup1\n      sload\n      swap1\n      0x0100\n      exp\n      swap1\n      div\n      0xffffffffffffffffffffffffffffffffffffffff\n      and\n        /* \"src/AddressExample.sol\":684:703  msg.sender == owner */\n      0xffffffffffffffffffffffffffffffffffffffff\n      and\n        /* \"src/AddressExample.sol\":684:694  msg.sender */\n      caller\n        /* \"src/AddressExample.sol\":684:703  msg.sender == owner */\n      0xffffffffffffffffffffffffffffffffffffffff\n      and\n      eq\n        /* \"src/AddressExample.sol\":676:731  require(msg.sender == owner, \"Only owner can transfer\") */\n      tag_41\n      jumpi\n      mload(0x40)\n      0x08c379a000000000000000000000000000000000000000000000000000000000\n      dup2\n      mstore\n      0x04\n      add\n      tag_42\n      swap1\n      tag_43\n      jump\t// in\n    tag_42:\n      mload(0x40)\n      dup1\n      swap2\n      sub\n      swap1\n      revert\n    tag_41:\n        /* \"src/AddressExample.sol\":774:780  amount */\n      dup1\n        /* \"src/AddressExample.sol\":749:770  address(this).balance */\n      selfbalance\n        /* \"src/AddressExample.sol\":749:780  address(this).balance >= amount */\n      lt\n      iszero\n        /* \"src/AddressExample.sol\":741:805  require(address(this).balance >= amount, \"Insufficient balance\") */\n      tag_44\n      jumpi\n      mload(0x40)\n      0x08c379a000000000000000000000000000000000000000000000000000000000\n      dup2\n      mstore\n      0x04\n      add\n      tag_45\n      swap1\n      tag_46\n      jump\t// in\n    tag_45:\n      mload(0x40)\n      dup1\n      swap2\n      sub\n      swap1\n      revert\n    tag_44:\n        /* \"src/AddressExample.sol\":816:822  wallet */\n      0x01\n      0x00\n      swap1\n      sload\n      swap1\n      0x0100\n      exp\n      swap1\n      div\n      0xffffffffffffffffffffffffffffffffffffffff\n      and\n        /* \"src/AddressExample.sol\":816:831  wallet.transfer */\n      0xffffffffffffffffffffffffffffffffffffffff\n      and\n        /* \"src/AddressExample.sol\":816:839  wallet.transfer(amount) */\n      0x08fc\n        /* \"src/AddressExample.sol\":832:838  amount */\n      dup3\n        /* \"src/AddressExample.sol\":816:839  wallet.transfer(amount) */\n      swap1\n      dup2\n      iszero\n      mul\n      swap1\n      mload(0x40)\n      0x00\n      mload(0x40)\n      dup1\n      dup4\n      sub\n      dup2\n      dup6\n      dup9\n      dup9\n      call\n      swap4\n      pop\n      pop\n      pop\n      pop\n      iszero\n      dup1\n      iszero\n      tag_48\n      jumpi\n      returndatasize\n      0x00\n      dup1\n      returndatacopy\n      revert(0x00, returndatasize)\n    tag_48:\n      pop\n        /* \"src/AddressExample.sol\":620:856  function transferToWallet(uint amount) public {... */\n      pop\n      jump\t// out\n        /* \"#utility.yul\":7:84   */\n    tag_49:\n        /* \"#utility.yul\":44:51   */\n      0x00\n        /* \"#utility.yul\":73:78   */\n      dup2\n        /* \"#utility.yul\":62:78   */\n      swap1\n      pop\n        /* \"#utility.yul\":7:84   */\n      swap2\n      swap1\n      pop\n      jump\t// out\n        /* \"#utility.yul\":90:208   */\n    tag_50:\n        /* \"#utility.yul\":177:201   */\n      tag_73\n        /* \"#utility.yul\":195:200   */\n      dup2\n        /* \"#utility.yul\":177:201   */\n      tag_49\n      jump\t// in\n    tag_73:\n        /* \"#utility.yul\":172:175   */\n      dup3\n        /* \"#utility.yul\":165:202   */\n      mstore\n        /* \"#utility.yul\":90:208   */\n      pop\n      pop\n      jump\t// out\n        /* \"#utility.yul\":214:436   */\n    tag_14:\n        /* \"#utility.yul\":307:311   */\n      0x00\n        /* \"#utility.yul\":345:347   */\n      0x20\n        /* \"#utility.yul\":334:343   */\n      dup3\n        /* \"#utility.yul\":330:348   */\n      add\n        /* \"#utility.yul\":322:348   */\n      swap1\n      pop\n        /* \"#utility.yul\":358:429   */\n      tag_75\n        /* \"#utility.yul\":426:427   */\n      0x00\n        /* \"#utility.yul\":415:424   */\n      dup4\n        /* \"#utility.yul\":411:428   */\n      add\n        /* \"#utility.yul\":402:408   */\n      dup5\n        /* \"#utility.yul\":358:429   */\n      tag_50\n      jump\t// in\n    tag_75:\n        /* \"#utility.yul\":214:436   */\n      swap3\n      swap2\n      pop\n      pop\n      jump\t// out\n        /* \"#utility.yul\":442:568   */\n    tag_51:\n        /* \"#utility.yul\":479:486   */\n      0x00\n        /* \"#utility.yul\":519:561   */\n      0xffffffffffffffffffffffffffffffffffffffff\n        /* \"#utility.yul\":512:517   */\n      dup3\n        /* \"#utility.yul\":508:562   */\n      and\n        /* \"#utility.yul\":497:562   */\n      swap1\n      pop\n        /* \"#utility.yul\":442:568   */\n      swap2\n      swap1\n      pop\n      jump\t// out\n        /* \"#utility.yul\":574:678   */\n    tag_52:\n        /* \"#utility.yul\":619:626   */\n      0x00\n        /* \"#utility.yul\":648:672   */\n      tag_78\n        /* \"#utility.yul\":666:671   */\n      dup3\n        /* \"#utility.yul\":648:672   */\n      tag_51\n      jump\t// in\n    tag_78:\n        /* \"#utility.yul\":637:672   */\n      swap1\n      pop\n        /* \"#utility.yul\":574:678   */\n      swap2\n      swap1\n      pop\n      jump\t// out\n        /* \"#utility.yul\":684:826   */\n    tag_53:\n        /* \"#utility.yul\":787:819   */\n      tag_80\n        /* \"#utility.yul\":813:818   */\n      dup2\n        /* \"#utility.yul\":787:819   */\n      tag_52\n      jump\t// in\n    tag_80:\n        /* \"#utility.yul\":782:785   */\n      dup3\n        /* \"#utility.yul\":775:820   */\n      mstore\n        /* \"#utility.yul\":684:826   */\n      pop\n      pop\n      jump\t// out\n        /* \"#utility.yul\":832:1086   */\n    tag_19:\n        /* \"#utility.yul\":941:945   */\n      0x00\n        /* \"#utility.yul\":979:981   */\n      0x20\n        /* \"#utility.yul\":968:977   */\n      dup3\n        /* \"#utility.yul\":964:982   */\n      add\n        /* \"#utility.yul\":956:982   */\n      swap1\n      pop\n        /* \"#utility.yul\":992:1079   */\n      tag_82\n        /* \"#utility.yul\":1076:1077   */\n      0x00\n        /* \"#utility.yul\":1065:1074   */\n      dup4\n        /* \"#utility.yul\":1061:1078   */\n      add\n        /* \"#utility.yul\":1052:1058   */\n      dup5\n        /* \"#utility.yul\":992:1079   */\n      tag_53\n      jump\t// in\n    tag_82:\n        /* \"#utility.yul\":832:1086   */\n      swap3\n      swap2\n      pop\n      pop\n      jump\t// out\n        /* \"#utility.yul\":1173:1290   */\n    tag_55:\n        /* \"#utility.yul\":1282:1283   */\n      0x00\n        /* \"#utility.yul\":1279:1280   */\n      dup1\n        /* \"#utility.yul\":1272:1284   */\n      revert\n        /* \"#utility.yul\":1419:1515   */\n    tag_57:\n        /* \"#utility.yul\":1456:1463   */\n      0x00\n        /* \"#utility.yul\":1485:1509   */\n      tag_87\n        /* \"#utility.yul\":1503:1508   */\n      dup3\n        /* \"#utility.yul\":1485:1509   */\n      tag_51\n      jump\t// in\n    tag_87:\n        /* \"#utility.yul\":1474:1509   */\n      swap1\n      pop\n        /* \"#utility.yul\":1419:1515   */\n      swap2\n      swap1\n      pop\n      jump\t// out\n        /* \"#utility.yul\":1521:1643   */\n    tag_58:\n        /* \"#utility.yul\":1594:1618   */\n      tag_89\n        /* \"#utility.yul\":1612:1617   */\n      dup2\n        /* \"#utility.yul\":1594:1618   */\n      tag_57\n      jump\t// in\n    tag_89:\n        /* \"#utility.yul\":1587:1592   */\n      dup2\n        /* \"#utility.yul\":1584:1619   */\n      eq\n        /* \"#utility.yul\":1574:1637   */\n      tag_90\n      jumpi\n        /* \"#utility.yul\":1633:1634   */\n      0x00\n        /* \"#utility.yul\":1630:1631   */\n      dup1\n        /* \"#utility.yul\":1623:1635   */\n      revert\n        /* \"#utility.yul\":1574:1637   */\n    tag_90:\n        /* \"#utility.yul\":1521:1643   */\n      pop\n      jump\t// out\n        /* \"#utility.yul\":1649:1788   */\n    tag_59:\n        /* \"#utility.yul\":1695:1700   */\n      0x00\n        /* \"#utility.yul\":1733:1739   */\n      dup2\n        /* \"#utility.yul\":1720:1740   */\n      calldataload\n        /* \"#utility.yul\":1711:1740   */\n      swap1\n      pop\n        /* \"#utility.yul\":1749:1782   */\n      tag_92\n        /* \"#utility.yul\":1776:1781   */\n      dup2\n        /* \"#utility.yul\":1749:1782   */\n      tag_58\n      jump\t// in\n    tag_92:\n        /* \"#utility.yul\":1649:1788   */\n      swap3\n      swap2\n      pop\n      pop\n      jump\t// out\n        /* \"#utility.yul\":1794:2123   */\n    tag_23:\n        /* \"#utility.yul\":1853:1859   */\n      0x00\n        /* \"#utility.yul\":1902:1904   */\n      0x20\n        /* \"#utility.yul\":1890:1899   */\n      dup3\n        /* \"#utility.yul\":1881:1888   */\n      dup5\n        /* \"#utility.yul\":1877:1900   */\n      sub\n        /* \"#utility.yul\":1873:1905   */\n      slt\n        /* \"#utility.yul\":1870:1989   */\n      iszero\n      tag_94\n      jumpi\n        /* \"#utility.yul\":1908:1987   */\n      tag_95\n      tag_55\n      jump\t// in\n    tag_95:\n        /* \"#utility.yul\":1870:1989   */\n    tag_94:\n        /* \"#utility.yul\":2028:2029   */\n      0x00\n        /* \"#utility.yul\":2053:2106   */\n      tag_96\n        /* \"#utility.yul\":2098:2105   */\n      dup5\n        /* \"#utility.yul\":2089:2095   */\n      dup3\n        /* \"#utility.yul\":2078:2087   */\n      dup6\n        /* \"#utility.yul\":2074:2096   */\n      add\n        /* \"#utility.yul\":2053:2106   */\n      tag_59\n      jump\t// in\n    tag_96:\n        /* \"#utility.yul\":2043:2106   */\n      swap2\n      pop\n        /* \"#utility.yul\":1999:2116   */\n      pop\n        /* \"#utility.yul\":1794:2123   */\n      swap3\n      swap2\n      pop\n      pop\n      jump\t// out\n        /* \"#utility.yul\":2129:2247   */\n    tag_60:\n        /* \"#utility.yul\":2216:2240   */\n      tag_98\n        /* \"#utility.yul\":2234:2239   */\n      dup2\n        /* \"#utility.yul\":2216:2240   */\n      tag_57\n      jump\t// in\n    tag_98:\n        /* \"#utility.yul\":2211:2214   */\n      dup3\n        /* \"#utility.yul\":2204:2241   */\n      mstore\n        /* \"#utility.yul\":2129:2247   */\n      pop\n      pop\n      jump\t// out\n        /* \"#utility.yul\":2253:2475   */\n    tag_29:\n        /* \"#utility.yul\":2346:2350   */\n      0x00\n        /* \"#utility.yul\":2384:2386   */\n      0x20\n        /* \"#utility.yul\":2373:2382   */\n      dup3\n        /* \"#utility.yul\":2369:2387   */\n      add\n        /* \"#utility.yul\":2361:2387   */\n      swap1\n      pop\n        /* \"#utility.yul\":2397:2468   */\n      tag_100\n        /* \"#utility.yul\":2465:2466   */\n      0x00\n        /* \"#utility.yul\":2454:2463   */\n      dup4\n        /* \"#utility.yul\":2450:2467   */\n      add\n        /* \"#utility.yul\":2441:2447   */\n      dup5\n        /* \"#utility.yul\":2397:2468   */\n      tag_60\n      jump\t// in\n    tag_100:\n        /* \"#utility.yul\":2253:2475   */\n      swap3\n      swap2\n      pop\n      pop\n      jump\t// out\n        /* \"#utility.yul\":2481:2603   */\n    tag_61:\n        /* \"#utility.yul\":2554:2578   */\n      tag_102\n        /* \"#utility.yul\":2572:2577   */\n      dup2\n        /* \"#utility.yul\":2554:2578   */\n      tag_49\n      jump\t// in\n    tag_102:\n        /* \"#utility.yul\":2547:2552   */\n      dup2\n        /* \"#utility.yul\":2544:2579   */\n      eq\n        /* \"#utility.yul\":2534:2597   */\n      tag_103\n      jumpi\n        /* \"#utility.yul\":2593:2594   */\n      0x00\n        /* \"#utility.yul\":2590:2591   */\n      dup1\n        /* \"#utility.yul\":2583:2595   */\n      revert\n        /* \"#utility.yul\":2534:2597   */\n    tag_103:\n        /* \"#utility.yul\":2481:2603   */\n      pop\n      jump\t// out\n        /* \"#utility.yul\":2609:2748   */\n    tag_62:\n        /* \"#utility.yul\":2655:2660   */\n      0x00\n        /* \"#utility.yul\":2693:2699   */\n      dup2\n        /* \"#utility.yul\":2680:2700   */\n      calldataload\n        /* \"#utility.yul\":2671:2700   */\n      swap1\n      pop\n        /* \"#utility.yul\":2709:2742   */\n      tag_105\n        /* \"#utility.yul\":2736:2741   */\n      dup2\n        /* \"#utility.yul\":2709:2742   */\n      tag_61\n      jump\t// in\n    tag_105:\n        /* \"#utility.yul\":2609:2748   */\n      swap3\n      swap2\n      pop\n      pop\n      jump\t// out\n        /* \"#utility.yul\":2754:3083   */\n    tag_33:\n        /* \"#utility.yul\":2813:2819   */\n      0x00\n        /* \"#utility.yul\":2862:2864   */\n      0x20\n        /* \"#utility.yul\":2850:2859   */\n      dup3\n        /* \"#utility.yul\":2841:2848   */\n      dup5\n        /* \"#utility.yul\":2837:2860   */\n      sub\n        /* \"#utility.yul\":2833:2865   */\n      slt\n        /* \"#utility.yul\":2830:2949   */\n      iszero\n      tag_107\n      jumpi\n        /* \"#utility.yul\":2868:2947   */\n      tag_108\n      tag_55\n      jump\t// in\n    tag_108:\n        /* \"#utility.yul\":2830:2949   */\n    tag_107:\n        /* \"#utility.yul\":2988:2989   */\n      0x00\n        /* \"#utility.yul\":3013:3066   */\n      tag_109\n        /* \"#utility.yul\":3058:3065   */\n      dup5\n        /* \"#utility.yul\":3049:3055   */\n      dup3\n        /* \"#utility.yul\":3038:3047   */\n      dup6\n        /* \"#utility.yul\":3034:3056   */\n      add\n        /* \"#utility.yul\":3013:3066   */\n      tag_62\n      jump\t// in\n    tag_109:\n        /* \"#utility.yul\":3003:3066   */\n      swap2\n      pop\n        /* \"#utility.yul\":2959:3076   */\n      pop\n        /* \"#utility.yul\":2754:3083   */\n      swap3\n      swap2\n      pop\n      pop\n      jump\t// out\n        /* \"#utility.yul\":3089:3258   */\n    tag_63:\n        /* \"#utility.yul\":3173:3184   */\n      0x00\n        /* \"#utility.yul\":3207:3213   */\n      dup3\n        /* \"#utility.yul\":3202:3205   */\n      dup3\n        /* \"#utility.yul\":3195:3214   */\n      mstore\n        /* \"#utility.yul\":3247:3251   */\n      0x20\n        /* \"#utility.yul\":3242:3245   */\n      dup3\n        /* \"#utility.yul\":3238:3252   */\n      add\n        /* \"#utility.yul\":3223:3252   */\n      swap1\n      pop\n        /* \"#utility.yul\":3089:3258   */\n      swap3\n      swap2\n      pop\n      pop\n      jump\t// out\n        /* \"#utility.yul\":3264:3435   */\n    tag_64:\n        /* \"#utility.yul\":3404:3427   */\n      0x4f6e6c79206f776e65722063616e207570646174650000000000000000000000\n        /* \"#utility.yul\":3400:3401   */\n      0x00\n        /* \"#utility.yul\":3392:3398   */\n      dup3\n        /* \"#utility.yul\":3388:3402   */\n      add\n        /* \"#utility.yul\":3381:3428   */\n      mstore\n        /* \"#utility.yul\":3264:3435   */\n      pop\n      jump\t// out\n        /* \"#utility.yul\":3441:3807   */\n    tag_65:\n        /* \"#utility.yul\":3583:3586   */\n      0x00\n        /* \"#utility.yul\":3604:3671   */\n      tag_113\n        /* \"#utility.yul\":3668:3670   */\n      0x15\n        /* \"#utility.yul\":3663:3666   */\n      dup4\n        /* \"#utility.yul\":3604:3671   */\n      tag_63\n      jump\t// in\n    tag_113:\n        /* \"#utility.yul\":3597:3671   */\n      swap2\n      pop\n        /* \"#utility.yul\":3680:3773   */\n      tag_114\n        /* \"#utility.yul\":3769:3772   */\n      dup3\n        /* \"#utility.yul\":3680:3773   */\n      tag_64\n      jump\t// in\n    tag_114:\n        /* \"#utility.yul\":3798:3800   */\n      0x20\n        /* \"#utility.yul\":3793:3796   */\n      dup3\n        /* \"#utility.yul\":3789:3801   */\n      add\n        /* \"#utility.yul\":3782:3801   */\n      swap1\n      pop\n        /* \"#utility.yul\":3441:3807   */\n      swap2\n      swap1\n      pop\n      jump\t// out\n        /* \"#utility.yul\":3813:4232   */\n    tag_39:\n        /* \"#utility.yul\":3979:3983   */\n      0x00\n        /* \"#utility.yul\":4017:4019   */\n      0x20\n        /* \"#utility.yul\":4006:4015   */\n      dup3\n        /* \"#utility.yul\":4002:4020   */\n      add\n        /* \"#utility.yul\":3994:4020   */\n      swap1\n      pop\n        /* \"#utility.yul\":4066:4075   */\n      dup2\n        /* \"#utility.yul\":4060:4064   */\n      dup2\n        /* \"#utility.yul\":4056:4076   */\n      sub\n        /* \"#utility.yul\":4052:4053   */\n      0x00\n        /* \"#utility.yul\":4041:4050   */\n      dup4\n        /* \"#utility.yul\":4037:4054   */\n      add\n        /* \"#utility.yul\":4030:4077   */\n      mstore\n        /* \"#utility.yul\":4094:4225   */\n      tag_116\n        /* \"#utility.yul\":4220:4224   */\n      dup2\n        /* \"#utility.yul\":4094:4225   */\n      tag_65\n      jump\t// in\n    tag_116:\n        /* \"#utility.yul\":4086:4225   */\n      swap1\n      pop\n        /* \"#utility.yul\":3813:4232   */\n      swap2\n      swap1\n      pop\n      jump\t// out\n        /* \"#utility.yul\":4238:4411   */\n    tag_66:\n        /* \"#utility.yul\":4378:4403   */\n      0x4f6e6c79206f776e65722063616e207472616e73666572000000000000000000\n        /* \"#utility.yul\":4374:4375   */\n      0x00\n        /* \"#utility.yul\":4366:4372   */\n      dup3\n        /* \"#utility.yul\":4362:4376   */\n      add\n        /* \"#utility.yul\":4355:4404   */\n      mstore\n        /* \"#utility.yul\":4238:4411   */\n      pop\n      jump\t// out\n        /* \"#utility.yul\":4417:4783   */\n    tag_67:\n        /* \"#utility.yul\":4559:4562   */\n      0x00\n        /* \"#utility.yul\":4580:4647   */\n      tag_119\n        /* \"#utility.yul\":4644:4646   */\n      0x17\n        /* \"#utility.yul\":4639:4642   */\n      dup4\n        /* \"#utility.yul\":4580:4647   */\n      tag_63\n      jump\t// in\n    tag_119:\n        /* \"#utility.yul\":4573:4647   */\n      swap2\n      pop\n        /* \"#utility.yul\":4656:4749   */\n      tag_120\n        /* \"#utility.yul\":4745:4748   */\n      dup3\n        /* \"#utility.yul\":4656:4749   */\n      tag_66\n      jump\t// in\n    tag_120:\n        /* \"#utility.yul\":4774:4776   */\n      0x20\n        /* \"#utility.yul\":4769:4772   */\n      dup3\n        /* \"#utility.yul\":4765:4777   */\n      add\n        /* \"#utility.yul\":4758:4777   */\n      swap1\n      pop\n        /* \"#utility.yul\":4417:4783   */\n      swap2\n      swap1\n      pop\n      jump\t// out\n        /* \"#utility.yul\":4789:5208   */\n    tag_43:\n        /* \"#utility.yul\":4955:4959   */\n      0x00\n        /* \"#utility.yul\":4993:4995   */\n      0x20\n        /* \"#utility.yul\":4982:4991   */\n      dup3\n        /* \"#utility.yul\":4978:4996   */\n      add\n        /* \"#utility.yul\":4970:4996   */\n      swap1\n      pop\n        /* \"#utility.yul\":5042:5051   */\n      dup2\n        /* \"#utility.yul\":5036:5040   */\n      dup2\n        /* \"#utility.yul\":5032:5052   */\n      sub\n        /* \"#utility.yul\":5028:5029   */\n      0x00\n        /* \"#utility.yul\":5017:5026   */\n      dup4\n        /* \"#utility.yul\":5013:5030   */\n      add\n        /* \"#utility.yul\":5006:5053   */\n      mstore\n        /* \"#utility.yul\":5070:5201   */\n      tag_122\n        /* \"#utility.yul\":5196:5200   */\n      dup2\n        /* \"#utility.yul\":5070:5201   */\n      tag_67\n      jump\t// in\n    tag_122:\n        /* \"#utility.yul\":5062:5201   */\n      swap1\n      pop\n        /* \"#utility.yul\":4789:5208   */\n      swap2\n      swap1\n      pop\n      jump\t// out\n        /* \"#utility.yul\":5214:5384   */\n    tag_68:\n        /* \"#utility.yul\":5354:5376   */\n      0x496e73756666696369656e742062616c616e6365000000000000000000000000\n        /* \"#utility.yul\":5350:5351   */\n      0x00\n        /* \"#utility.yul\":5342:5348   */\n      dup3\n        /* \"#utility.yul\":5338:5352   */\n      add\n        /* \"#utility.yul\":5331:5377   */\n      mstore\n        /* \"#utility.yul\":5214:5384   */\n      pop\n      jump\t// out\n        /* \"#utility.yul\":5390:5756   */\n    tag_69:\n        /* \"#utility.yul\":5532:5535   */\n      0x00\n        /* \"#utility.yul\":5553:5620   */\n      tag_125\n        /* \"#utility.yul\":5617:5619   */\n      0x14\n        /* \"#utility.yul\":5612:5615   */\n      dup4\n        /* \"#utility.yul\":5553:5620   */\n      tag_63\n      jump\t// in\n    tag_125:\n        /* \"#utility.yul\":5546:5620   */\n      swap2\n      pop\n        /* \"#utility.yul\":5629:5722   */\n      tag_126\n        /* \"#utility.yul\":5718:5721   */\n      dup3\n        /* \"#utility.yul\":5629:5722   */\n      tag_68\n      jump\t// in\n    tag_126:\n        /* \"#utility.yul\":5747:5749   */\n      0x20\n        /* \"#utility.yul\":5742:5745   */\n      dup3\n        /* \"#utility.yul\":5738:5750   */\n      add\n        /* \"#utility.yul\":5731:5750   */\n      swap1\n      pop\n        /* \"#utility.yul\":5390:5756   */\n      swap2\n      swap1\n      pop\n      jump\t// out\n        /* \"#utility.yul\":5762:6181   */\n    tag_46:\n        /* \"#utility.yul\":5928:5932   */\n      0x00\n        /* \"#utility.yul\":5966:5968   */\n      0x20\n        /* \"#utility.yul\":5955:5964   */\n      dup3\n        /* \"#utility.yul\":5951:5969   */\n      add\n        /* \"#utility.yul\":5943:5969   */\n      swap1\n      pop\n        /* \"#utility.yul\":6015:6024   */\n      dup2\n        /* \"#utility.yul\":6009:6013   */\n      dup2\n        /* \"#utility.yul\":6005:6025   */\n      sub\n        /* \"#utility.yul\":6001:6002   */\n      0x00\n        /* \"#utility.yul\":5990:5999   */\n      dup4\n        /* \"#utility.yul\":5986:6003   */\n      add\n        /* \"#utility.yul\":5979:6026   */\n      mstore\n        /* \"#utility.yul\":6043:6174   */\n      tag_128\n        /* \"#utility.yul\":6169:6173   */\n      dup2\n        /* \"#utility.yul\":6043:6174   */\n      tag_69\n      jump\t// in\n    tag_128:\n        /* \"#utility.yul\":6035:6174   */\n      swap1\n      pop\n        /* \"#utility.yul\":5762:6181   */\n      swap2\n      swap1\n      pop\n      jump\t// out\n\n    auxdata: 0xa2646970667358221220501f444f6f7ad18e8e6578a32d1d4b082b235a9dfc7195d752b705a84b885a0a64736f6c634300081a0033\n}\n",
				"bytecode": {
					"linkReferences": {},
					"object": "608060405234801561001057600080fd5b506040516107f43803806107f48339818101604052810190610032919061011c565b336000806101000a81548173ffffffffffffffffffffffffffffffffffffffff021916908373ffffffffffffffffffffffffffffffffffffffff16021790555080600160006101000a81548173ffffffffffffffffffffffffffffffffffffffff021916908373ffffffffffffffffffffffffffffffffffffffff16021790555050610149565b600080fd5b600073ffffffffffffffffffffffffffffffffffffffff82169050919050565b60006100e9826100be565b9050919050565b6100f9816100de565b811461010457600080fd5b50565b600081519050610116816100f0565b92915050565b600060208284031215610132576101316100b9565b5b600061014084828501610107565b91505092915050565b61069c806101586000396000f3fe60806040526004361061004e5760003560e01c806312065fe01461005a578063521eb27314610085578063848b86e3146100b05780638da5cb5b146100d9578063a18ccc8a1461010457610055565b3661005557005b600080fd5b34801561006657600080fd5b5061006f61012d565b60405161007c91906103a7565b60405180910390f35b34801561009157600080fd5b5061009a610135565b6040516100a79190610403565b60405180910390f35b3480156100bc57600080fd5b506100d760048036038101906100d29190610461565b61015b565b005b3480156100e557600080fd5b506100ee61022d565b6040516100fb919061049d565b60405180910390f35b34801561011057600080fd5b5061012b600480360381019061012691906104e4565b610251565b005b600047905090565b600160009054906101000a900473ffffffffffffffffffffffffffffffffffffffff1681565b60008054906101000a900473ffffffffffffffffffffffffffffffffffffffff1673ffffffffffffffffffffffffffffffffffffffff163373ffffffffffffffffffffffffffffffffffffffff16146101e9576040517f08c379a00000000000000000000000000000000000000000000000000000000081526004016101e09061056e565b60405180910390fd5b80600160006101000a81548173ffffffffffffffffffffffffffffffffffffffff021916908373ffffffffffffffffffffffffffffffffffffffff16021790555050565b60008054906101000a900473ffffffffffffffffffffffffffffffffffffffff1681565b60008054906101000a900473ffffffffffffffffffffffffffffffffffffffff1673ffffffffffffffffffffffffffffffffffffffff163373ffffffffffffffffffffffffffffffffffffffff16146102df576040517f08c379a00000000000000000000000000000000000000000000000000000000081526004016102d6906105da565b60405180910390fd5b80471015610322576040517f08c379a000000000000000000000000000000000000000000000000000000000815260040161031990610646565b60405180910390fd5b600160009054906101000a900473ffffffffffffffffffffffffffffffffffffffff1673ffffffffffffffffffffffffffffffffffffffff166108fc829081150290604051600060405180830381858888f1935050505015801561038a573d6000803e3d6000fd5b5050565b6000819050919050565b6103a18161038e565b82525050565b60006020820190506103bc6000830184610398565b92915050565b600073ffffffffffffffffffffffffffffffffffffffff82169050919050565b60006103ed826103c2565b9050919050565b6103fd816103e2565b82525050565b600060208201905061041860008301846103f4565b92915050565b600080fd5b600061042e826103c2565b9050919050565b61043e81610423565b811461044957600080fd5b50565b60008135905061045b81610435565b92915050565b6000602082840312156104775761047661041e565b5b60006104858482850161044c565b91505092915050565b61049781610423565b82525050565b60006020820190506104b2600083018461048e565b92915050565b6104c18161038e565b81146104cc57600080fd5b50565b6000813590506104de816104b8565b92915050565b6000602082840312156104fa576104f961041e565b5b6000610508848285016104cf565b91505092915050565b600082825260208201905092915050565b7f4f6e6c79206f776e65722063616e207570646174650000000000000000000000600082015250565b6000610558601583610511565b915061056382610522565b602082019050919050565b600060208201905081810360008301526105878161054b565b9050919050565b7f4f6e6c79206f776e65722063616e207472616e73666572000000000000000000600082015250565b60006105c4601783610511565b91506105cf8261058e565b602082019050919050565b600060208201905081810360008301526105f3816105b7565b9050919050565b7f496e73756666696369656e742062616c616e6365000000000000000000000000600082015250565b6000610630601483610511565b915061063b826105fa565b602082019050919050565b6000602082019050818103600083015261065f81610623565b905091905056fea2646970667358221220501f444f6f7ad18e8e6578a32d1d4b082b235a9dfc7195d752b705a84b885a0a64736f6c634300081a0033",
					"opcodes": "PUSH1 0x80 PUSH1 0x40 MSTORE CALLVALUE DUP1 ISZERO PUSH2 0x10 JUMPI PUSH1 0x0 DUP1 REVERT JUMPDEST POP PUSH1 0x40 MLOAD PUSH2 0x7F4 CODESIZE SUB DUP1 PUSH2 0x7F4 DUP4 CODECOPY DUP2 DUP2 ADD PUSH1 0x40 MSTORE DUP2 ADD SWAP1 PUSH2 0x32 SWAP2 SWAP1 PUSH2 0x11C JUMP JUMPDEST CALLER PUSH1 0x0 DUP1 PUSH2 0x100 EXP DUP2 SLOAD DUP2 PUSH20 0xFFFFFFFFFFFFFFFFFFFFFFFFFFFFFFFFFFFFFFFF MUL NOT AND SWAP1 DUP4 PUSH20 0xFFFFFFFFFFFFFFFFFFFFFFFFFFFFFFFFFFFFFFFF AND MUL OR SWAP1 SSTORE POP DUP1 PUSH1 0x1 PUSH1 0x0 PUSH2 0x100 EXP DUP2 SLOAD DUP2 PUSH20 0xFFFFFFFFFFFFFFFFFFFFFFFFFFFFFFFFFFFFFFFF MUL NOT AND SWAP1 DUP4 PUSH20 0xFFFFFFFFFFFFFFFFFFFFFFFFFFFFFFFFFFFFFFFF AND MUL OR SWAP1 SSTORE POP POP PUSH2 0x149 JUMP JUMPDEST PUSH1 0x0 DUP1 REVERT JUMPDEST PUSH1 0x0 PUSH20 0xFFFFFFFFFFFFFFFFFFFFFFFFFFFFFFFFFFFFFFFF DUP3 AND SWAP1 POP SWAP2 SWAP1 POP JUMP JUMPDEST PUSH1 0x0 PUSH2 0xE9 DUP3 PUSH2 0xBE JUMP JUMPDEST SWAP1 POP SWAP2 SWAP1 POP JUMP JUMPDEST PUSH2 0xF9 DUP2 PUSH2 0xDE JUMP JUMPDEST DUP2 EQ PUSH2 0x104 JUMPI PUSH1 0x0 DUP1 REVERT JUMPDEST POP JUMP JUMPDEST PUSH1 0x0 DUP2 MLOAD SWAP1 POP PUSH2 0x116 DUP2 PUSH2 0xF0 JUMP JUMPDEST SWAP3 SWAP2 POP POP JUMP JUMPDEST PUSH1 0x0 PUSH1 0x20 DUP3 DUP5 SUB SLT ISZERO PUSH2 0x132 JUMPI PUSH2 0x131 PUSH2 0xB9 JUMP JUMPDEST JUMPDEST PUSH1 0x0 PUSH2 0x140 DUP5 DUP3 DUP6 ADD PUSH2 0x107 JUMP JUMPDEST SWAP2 POP POP SWAP3 SWAP2 POP POP JUMP JUMPDEST PUSH2 0x69C DUP1 PUSH2 0x158 PUSH1 0x0 CODECOPY PUSH1 0x0 RETURN INVALID PUSH1 0x80 PUSH1 0x40 MSTORE PUSH1 0x4 CALLDATASIZE LT PUSH2 0x4E JUMPI PUSH1 0x0 CALLDATALOAD PUSH1 0xE0 SHR DUP1 PUSH4 0x12065FE0 EQ PUSH2 0x5A JUMPI DUP1 PUSH4 0x521EB273 EQ PUSH2 0x85 JUMPI DUP1 PUSH4 0x848B86E3 EQ PUSH2 0xB0 JUMPI DUP1 PUSH4 0x8DA5CB5B EQ PUSH2 0xD9 JUMPI DUP1 PUSH4 0xA18CCC8A EQ PUSH2 0x104 JUMPI PUSH2 0x55 JUMP JUMPDEST CALLDATASIZE PUSH2 0x55 JUMPI STOP JUMPDEST PUSH1 0x0 DUP1 REVERT JUMPDEST CALLVALUE DUP1 ISZERO PUSH2 0x66 JUMPI PUSH1 0x0 DUP1 REVERT JUMPDEST POP PUSH2 0x6F PUSH2 0x12D JUMP JUMPDEST PUSH1 0x40 MLOAD PUSH2 0x7C SWAP2 SWAP1 PUSH2 0x3A7 JUMP JUMPDEST PUSH1 0x40 MLOAD DUP1 SWAP2 SUB SWAP1 RETURN JUMPDEST CALLVALUE DUP1 ISZERO PUSH2 0x91 JUMPI PUSH1 0x0 DUP1 REVERT JUMPDEST POP PUSH2 0x9A PUSH2 0x135 JUMP JUMPDEST PUSH1 0x40 MLOAD PUSH2 0xA7 SWAP2 SWAP1 PUSH2 0x403 JUMP JUMPDEST PUSH1 0x40 MLOAD DUP1 SWAP2 SUB SWAP1 RETURN JUMPDEST CALLVALUE DUP1 ISZERO PUSH2 0xBC JUMPI PUSH1 0x0 DUP1 REVERT JUMPDEST POP PUSH2 0xD7 PUSH1 0x4 DUP1 CALLDATASIZE SUB DUP2 ADD SWAP1 PUSH2 0xD2 SWAP2 SWAP1 PUSH2 0x461 JUMP JUMPDEST PUSH2 0x15B JUMP JUMPDEST STOP JUMPDEST CALLVALUE DUP1 ISZERO PUSH2 0xE5 JUMPI PUSH1 0x0 DUP1 REVERT JUMPDEST POP PUSH2 0xEE PUSH2 0x22D JUMP JUMPDEST PUSH1 0x40 MLOAD PUSH2 0xFB SWAP2 SWAP1 PUSH2 0x49D JUMP JUMPDEST PUSH1 0x40 MLOAD DUP1 SWAP2 SUB SWAP1 RETURN JUMPDEST CALLVALUE DUP1 ISZERO PUSH2 0x110 JUMPI PUSH1 0x0 DUP1 REVERT JUMPDEST POP PUSH2 0x12B PUSH1 0x4 DUP1 CALLDATASIZE SUB DUP2 ADD SWAP1 PUSH2 0x126 SWAP2 SWAP1 PUSH2 0x4E4 JUMP JUMPDEST PUSH2 0x251 JUMP JUMPDEST STOP JUMPDEST PUSH1 0x0 SELFBALANCE SWAP1 POP SWAP1 JUMP JUMPDEST PUSH1 0x1 PUSH1 0x0 SWAP1 SLOAD SWAP1 PUSH2 0x100 EXP SWAP1 DIV PUSH20 0xFFFFFFFFFFFFFFFFFFFFFFFFFFFFFFFFFFFFFFFF AND DUP2 JUMP JUMPDEST PUSH1 0x0 DUP1 SLOAD SWAP1 PUSH2 0x100 EXP SWAP1 DIV PUSH20 0xFFFFFFFFFFFFFFFFFFFFFFFFFFFFFFFFFFFFFFFF AND PUSH20 0xFFFFFFFFFFFFFFFFFFFFFFFFFFFFFFFFFFFFFFFF AND CALLER PUSH20 0xFFFFFFFFFFFFFFFFFFFFFFFFFFFFFFFFFFFFFFFF AND EQ PUSH2 0x1E9 JUMPI PUSH1 0x40 MLOAD PUSH32 0x8C379A000000000000000000000000000000000000000000000000000000000 DUP2 MSTORE PUSH1 0x4 ADD PUSH2 0x1E0 SWAP1 PUSH2 0x56E JUMP JUMPDEST PUSH1 0x40 MLOAD DUP1 SWAP2 SUB SWAP1 REVERT JUMPDEST DUP1 PUSH1 0x1 PUSH1 0x0 PUSH2 0x100 EXP DUP2 SLOAD DUP2 PUSH20 0xFFFFFFFFFFFFFFFFFFFFFFFFFFFFFFFFFFFFFFFF MUL NOT AND SWAP1 DUP4 PUSH20 0xFFFFFFFFFFFFFFFFFFFFFFFFFFFFFFFFFFFFFFFF AND MUL OR SWAP1 SSTORE POP POP JUMP JUMPDEST PUSH1 0x0 DUP1 SLOAD SWAP1 PUSH2 0x100 EXP SWAP1 DIV PUSH20 0xFFFFFFFFFFFFFFFFFFFFFFFFFFFFFFFFFFFFFFFF AND DUP2 JUMP JUMPDEST PUSH1 0x0 DUP1 SLOAD SWAP1 PUSH2 0x100 EXP SWAP1 DIV PUSH20 0xFFFFFFFFFFFFFFFFFFFFFFFFFFFFFFFFFFFFFFFF AND PUSH20 0xFFFFFFFFFFFFFFFFFFFFFFFFFFFFFFFFFFFFFFFF AND CALLER PUSH20 0xFFFFFFFFFFFFFFFFFFFFFFFFFFFFFFFFFFFFFFFF AND EQ PUSH2 0x2DF JUMPI PUSH1 0x40 MLOAD PUSH32 0x8C379A000000000000000000000000000000000000000000000000000000000 DUP2 MSTORE PUSH1 0x4 ADD PUSH2 0x2D6 SWAP1 PUSH2 0x5DA JUMP JUMPDEST PUSH1 0x40 MLOAD DUP1 SWAP2 SUB SWAP1 REVERT JUMPDEST DUP1 SELFBALANCE LT ISZERO PUSH2 0x322 JUMPI PUSH1 0x40 MLOAD PUSH32 0x8C379A000000000000000000000000000000000000000000000000000000000 DUP2 MSTORE PUSH1 0x4 ADD PUSH2 0x319 SWAP1 PUSH2 0x646 JUMP JUMPDEST PUSH1 0x40 MLOAD DUP1 SWAP2 SUB SWAP1 REVERT JUMPDEST PUSH1 0x1 PUSH1 0x0 SWAP1 SLOAD SWAP1 PUSH2 0x100 EXP SWAP1 DIV PUSH20 0xFFFFFFFFFFFFFFFFFFFFFFFFFFFFFFFFFFFFFFFF AND PUSH20 0xFFFFFFFFFFFFFFFFFFFFFFFFFFFFFFFFFFFFFFFF AND PUSH2 0x8FC DUP3 SWAP1 DUP2 ISZERO MUL SWAP1 PUSH1 0x40 MLOAD PUSH1 0x0 PUSH1 0x40 MLOAD DUP1 DUP4 SUB DUP2 DUP6 DUP9 DUP9 CALL SWAP4 POP POP POP POP ISZERO DUP1 ISZERO PUSH2 0x38A JUMPI RETURNDATASIZE PUSH1 0x0 DUP1 RETURNDATACOPY RETURNDATASIZE PUSH1 0x0 REVERT JUMPDEST POP POP JUMP JUMPDEST PUSH1 0x0 DUP2 SWAP1 POP SWAP2 SWAP1 POP JUMP JUMPDEST PUSH2 0x3A1 DUP2 PUSH2 0x38E JUMP JUMPDEST DUP3 MSTORE POP POP JUMP JUMPDEST PUSH1 0x0 PUSH1 0x20 DUP3 ADD SWAP1 POP PUSH2 0x3BC PUSH1 0x0 DUP4 ADD DUP5 PUSH2 0x398 JUMP JUMPDEST SWAP3 SWAP2 POP POP JUMP JUMPDEST PUSH1 0x0 PUSH20 0xFFFFFFFFFFFFFFFFFFFFFFFFFFFFFFFFFFFFFFFF DUP3 AND SWAP1 POP SWAP2 SWAP1 POP JUMP JUMPDEST PUSH1 0x0 PUSH2 0x3ED DUP3 PUSH2 0x3C2 JUMP JUMPDEST SWAP1 POP SWAP2 SWAP1 POP JUMP JUMPDEST PUSH2 0x3FD DUP2 PUSH2 0x3E2 JUMP JUMPDEST DUP3 MSTORE POP POP JUMP JUMPDEST PUSH1 0x0 PUSH1 0x20 DUP3 ADD SWAP1 POP PUSH2 0x418 PUSH1 0x0 DUP4 ADD DUP5 PUSH2 0x3F4 JUMP JUMPDEST SWAP3 SWAP2 POP POP JUMP JUMPDEST PUSH1 0x0 DUP1 REVERT JUMPDEST PUSH1 0x0 PUSH2 0x42E DUP3 PUSH2 0x3C2 JUMP JUMPDEST SWAP1 POP SWAP2 SWAP1 POP JUMP JUMPDEST PUSH2 0x43E DUP2 PUSH2 0x423 JUMP JUMPDEST DUP2 EQ PUSH2 0x449 JUMPI PUSH1 0x0 DUP1 REVERT JUMPDEST POP JUMP JUMPDEST PUSH1 0x0 DUP2 CALLDATALOAD SWAP1 POP PUSH2 0x45B DUP2 PUSH2 0x435 JUMP JUMPDEST SWAP3 SWAP2 POP POP JUMP JUMPDEST PUSH1 0x0 PUSH1 0x20 DUP3 DUP5 SUB SLT ISZERO PUSH2 0x477 JUMPI PUSH2 0x476 PUSH2 0x41E JUMP JUMPDEST JUMPDEST PUSH1 0x0 PUSH2 0x485 DUP5 DUP3 DUP6 ADD PUSH2 0x44C JUMP JUMPDEST SWAP2 POP POP SWAP3 SWAP2 POP POP JUMP JUMPDEST PUSH2 0x497 DUP2 PUSH2 0x423 JUMP JUMPDEST DUP3 MSTORE POP POP JUMP JUMPDEST PUSH1 0x0 PUSH1 0x20 DUP3 ADD SWAP1 POP PUSH2 0x4B2 PUSH1 0x0 DUP4 ADD DUP5 PUSH2 0x48E JUMP JUMPDEST SWAP3 SWAP2 POP POP JUMP JUMPDEST PUSH2 0x4C1 DUP2 PUSH2 0x38E JUMP JUMPDEST DUP2 EQ PUSH2 0x4CC JUMPI PUSH1 0x0 DUP1 REVERT JUMPDEST POP JUMP JUMPDEST PUSH1 0x0 DUP2 CALLDATALOAD SWAP1 POP PUSH2 0x4DE DUP2 PUSH2 0x4B8 JUMP JUMPDEST SWAP3 SWAP2 POP POP JUMP JUMPDEST PUSH1 0x0 PUSH1 0x20 DUP3 DUP5 SUB SLT ISZERO PUSH2 0x4FA JUMPI PUSH2 0x4F9 PUSH2 0x41E JUMP JUMPDEST JUMPDEST PUSH1 0x0 PUSH2 0x508 DUP5 DUP3 DUP6 ADD PUSH2 0x4CF JUMP JUMPDEST SWAP2 POP POP SWAP3 SWAP2 POP POP JUMP JUMPDEST PUSH1 0x0 DUP3 DUP3 MSTORE PUSH1 0x20 DUP3 ADD SWAP1 POP SWAP3 SWAP2 POP POP JUMP JUMPDEST PUSH32 0x4F6E6C79206F776E65722063616E207570646174650000000000000000000000 PUSH1 0x0 DUP3 ADD MSTORE POP JUMP JUMPDEST PUSH1 0x0 PUSH2 0x558 PUSH1 0x15 DUP4 PUSH2 0x511 JUMP JUMPDEST SWAP2 POP PUSH2 0x563 DUP3 PUSH2 0x522 JUMP JUMPDEST PUSH1 0x20 DUP3 ADD SWAP1 POP SWAP2 SWAP1 POP JUMP JUMPDEST PUSH1 0x0 PUSH1 0x20 DUP3 ADD SWAP1 POP DUP2 DUP2 SUB PUSH1 0x0 DUP4 ADD MSTORE PUSH2 0x587 DUP2 PUSH2 0x54B JUMP JUMPDEST SWAP1 POP SWAP2 SWAP1 POP JUMP JUMPDEST PUSH32 0x4F6E6C79206F776E65722063616E207472616E73666572000000000000000000 PUSH1 0x0 DUP3 ADD MSTORE POP JUMP JUMPDEST PUSH1 0x0 PUSH2 0x5C4 PUSH1 0x17 DUP4 PUSH2 0x511 JUMP JUMPDEST SWAP2 POP PUSH2 0x5CF DUP3 PUSH2 0x58E JUMP JUMPDEST PUSH1 0x20 DUP3 ADD SWAP1 POP SWAP2 SWAP1 POP JUMP JUMPDEST PUSH1 0x0 PUSH1 0x20 DUP3 ADD SWAP1 POP DUP2 DUP2 SUB PUSH1 0x0 DUP4 ADD MSTORE PUSH2 0x5F3 DUP2 PUSH2 0x5B7 JUMP JUMPDEST SWAP1 POP SWAP2 SWAP1 POP JUMP JUMPDEST PUSH32 0x496E73756666696369656E742062616C616E6365000000000000000000000000 PUSH1 0x0 DUP3 ADD MSTORE POP JUMP JUMPDEST PUSH1 0x0 PUSH2 0x630 PUSH1 0x14 DUP4 PUSH2 0x511 JUMP JUMPDEST SWAP2 POP PUSH2 0x63B DUP3 PUSH2 0x5FA JUMP JUMPDEST PUSH1 0x20 DUP3 ADD SWAP1 POP SWAP2 SWAP1 POP JUMP JUMPDEST PUSH1 0x0 PUSH1 0x20 DUP3 ADD SWAP1 POP DUP2 DUP2 SUB PUSH1 0x0 DUP4 ADD MSTORE PUSH2 0x65F DUP2 PUSH2 0x623 JUMP JUMPDEST SWAP1 POP SWAP2 SWAP1 POP JUMP INVALID LOG2 PUSH5 0x6970667358 0x22 SLT KECCAK256 POP 0x1F DIFFICULTY 0x4F PUSH16 0x7AD18E8E6578A32D1D4B082B235A9DFC PUSH18 0x95D752B705A84B885A0A64736F6C63430008 BYTE STOP CALLER "
				},
				"gasEstimates": {
					"creation": {
						"codeDepositCost": "338400",
						"executionCost": "infinite",
						"totalCost": "infinite"
					},
					"external": {
						"getBalance()": "317",
						"owner()": "2555",
						"transferToWallet(uint256)": "infinite",
						"updateWallet(address)": "26911",
						"wallet()": "2514"
					}
				},
				"methodIdentifiers": {
					"getBalance()": "12065fe0",
					"owner()": "8da5cb5b",
					"transferToWallet(uint256)": "a18ccc8a",
					"updateWallet(address)": "848b86e3",
					"wallet()": "521eb273"
				}
			},
			"storageLayout": {
				"storage": [
					{
						"astId": 3,
						"contract": "src/AddressExample.sol:AddressExample",
						"label": "owner",
						"offset": 0,
						"slot": "0",
						"type": "t_address"
					},
					{
						"astId": 5,
						"contract": "src/AddressExample.sol:AddressExample",
						"label": "wallet",
						"offset": 0,
						"slot": "1",
						"type": "t_address_payable"
					}
				],
				"types": {
					"t_address": {
						"encoding": "inplace",
						"label": "address",
						"numberOfBytes": "20"
					},
					"t_address_payable": {
						"encoding": "inplace",
						"label": "address payable",
						"numberOfBytes": "20"
					}
				}
			},
			"userdoc": {
				"kind": "user",
				"methods": {},
				"version": 1
			}
		}
	}
}